:100000000000022099060000FD060000D90500004E
:10001000FD060000FD060000FD06000000000000D7
:10002000000000000000000000000000FD060000CD
:10003000FD06000000000000FD060000FD060000B7
:10004000FD060000FD060000FD060000FD060000A4
:10005000FD06000000000000FD060000FD06000097
:10006000FD060000FD060000FD060000FD06000084
:10007000FD060000FD060000FD060000FD06000074
:10008000FD060000FD060000FD060000FD06000064
:10009000FD060000FD060000FD060000FD06000054
:1000A000FD060000FD060000FD060000FD06000044
:1000B000FD060000FD060000FD060000FD06000034
:1000C0002D040000FD060000FD060000FD060000F6
:1000D00009040000FD060000FD060000FD0600000A
:1000E000FD060000FD060000FD060000FD06000004
:1000F000FD06000000000000FD060000FD060000F7
:10010000FD060000FD060000FD060000FD060000E3
:10011000FD060000FD060000FD060000FD060000D3
:10012000FD060000FD060000FD060000FD060000C3
:10013000FD06000000000000FD06000000000000B9
:10014000FD060000FD060000FD060000FD060000A3
:10015000FD06000000000000FD060000FD06000096
:10016000FD060000FD060000FD060000FD06000083
:10017000FD060000FD060000FD060000FD06000073
:10018000FD060000FD060000FD0600000000000066
:10019000FD060000FD060000FD060000FD06000053
:1001A000FD060000FD060000FD0600000000000046
:1001B000FD060000FD060000000000000000000039
:1001C000000000000000000000000000000000002F
:1001D00000000000FD060000FD060000FD06000016
:1001E000FD060000FD060000FD060000FD06000003
:1001F000FD06000010B5054C237833B9044B13B14C
:100200000448AFF300800123237010BD7C00002060
:1002100000000000B01800000C4B43B10C480D4921
:1002200010B5AFF300800C48036823B910BD0A482D
:10023000036833B97047094B002BF7D0BDE8104075
:100240001847064B002BF5D0184700BF00000000F0
:10025000B01800008000002078000020000000009E
:10026000154B002B08BF134B9D46A3F5803A002188
:100270008B460F461348144A121A00F0B9FA0F4B76
:10028000002B00D098470E4B002B00D09847002041
:10029000002104000D000D48002802D00C48AFF3E7
:1002A000008000F081FA2000290000F0FDF800F045
:1002B00067FA00BF000008000000022000000000F4
:1002C000000000007C000020B008002000000000BA
:1002D00000000000124A136843F040731360114B92
:1002E000196841F480311960116841F4E0611160CE
:1002F0001A6842F004021A600B4B1A6822F440425A
:100300001A600A490A6842F080520A6004310A6899
:1003100042F4CC020A601A6842F080521A607047B8
:1003200014020040080200404040004038000040F5
:100330001A4A136823F007031360243A136843F042
:10034000030313601832136823F0405313601368DB
:1003500023F0FF0343F04C031360203A136843F08B
:10036000010313601832136843F000431360143A1A
:10037000136823F4A87343F010031360084B1A6842
:1003800042F010021A601A6842F001021A60054A2F
:10039000136843F001031360704700BF300007404B
:1003A00004E100E000E100E0134B1B68134A12680F
:1003B0009B1A013BDBB2124A13708B4204D300221A
:1003C0008A4217DA70B403E0704701328A420FDACA
:1003D0000A4B1D68865C0B4C44F825601C68013490
:1003E0001C601B68FE2BF0D90024044B1C60ECE75A
:1003F00070BC7047704700BF980000209C00002030
:10040000A8080020A804002008B5064BDB6913F0FB
:10041000010F00D108BD034B196849B2024800F032
:10042000EFF9F7E70000074090170000174B1A6834
:1004300001321A60FF21164B1960164BA3FB021301
:10044000DB0803EB83035900531A012B12D0124B24
:10045000A3FB02135B09642101FB1323012B0DD0C5
:1004600042F210739A420DD00C4A136843F0010314
:1004700013607047FF210A4B1960E8E7FF21094B21
:100480001960EDE70022014B1A60EDE7A408002097
:1004900008000020CDCCCCCC1F85EB5108000540D6
:1004A000040000200000002008B5FFF713FFFFF74D
:1004B0003FFFFFF7BBFF08211D48FFF775FF1BE05B
:1004C00044221C4B1A601C4B1A681C4B1B689A4236
:1004D00009D01A4B19681A4A52F82110194A1160AA
:1004E0001A6801321A60184A1368DB43136007E088
:1004F000164B1B68FF2B12D00E4B1B68FF2BDFD057
:10050000134B1B68FF2BF3D14422114B1A6002F1ED
:10051000804202F590421368DB431360E8E744220F
:100520000A4B1A600B4A1368DB431360E4E700BF11
:1005300094170000080000209C0000209800002074
:10054000A8040020000007400048004000000020F0
:10055000040000208848004010B504460168104897
:1005600000F04EF961680F4800F04AF9A1680E48A2
:1005700000F046F9E1680D4800F042F921690C48A5
:1005800000F03EF961690B4800F03AF9A1690A48A8
:1005900000F036F9E169094800F032F910BD00BFFA
:1005A000B8170000C4170000D0170000DC170000C7
:1005B000E8170000F4170000001800000C180000F5
:1005C00008B50446034800F08FF92046FFF7C4FF42
:1005D000FEE700BFA0170000074B04207146084249
:1005E00004D0EFF309807146FFF7EABFEFF308800C
:1005F000FFF7E6BFFEE700BFC105000030B41346B9
:1006000005E091F900500D4B1D60234601315C1E41
:100610008BB10A4B9B6913F4000FFAD191F90030AA
:100620000A2BEED10D25054B1D60044B9B6913F47D
:10063000000FFAD1E5E7104630BC704700000740D4
:10064000044B9B6913F4804FFAD1024B1B680B706B
:10065000012070470000074008B500F08BF85823D0
:1006600003604FF0FF3008BD08B500F083F8582351
:1006700003604FF0FF3008BD08B500F07BF8582349
:100680000360002008BD08B500F074F8582303602B
:100690004FF0FF3008BD00001249134A134B9A4235
:1006A000BEBF51F8040B42F8040BF8E7104859217B
:1006B000016016210160882101600E48416841F403
:1006C000804141600C48416841F00201416041684D
:1006D00041F00401416000F013F805480021016079
:1006E000FFF7BEFDBC180000000000207C000020C9
:1006F000000100400002004000700040FEE700BF23
:10070000174AD2F8883043F47003C2F88830154A8B
:10071000D36C23F00F0343F00803D364124BD3F8D8
:10072000982042F48022C3F898209A6842F002028E
:100730009A600E4AD2F8041101F0F731C2F80411A0
:10074000D2F8081101F0F731C2F808119A6822F0C6
:1007500002029A60064A136823F0F00313607047A0
:1007600000ED00E000C00040000200400010044026
:1007700040410040014B1868704700BF0C0000204A
:1007800008B5074B044613B10021AFF30080054BB9
:100790001868836A03B19847204600F0EBFF00BF5A
:1007A000000000001818000070B50D4E0D4CA41B81
:1007B000A4100025A54209D10B4E0C4C00F0DCFF23
:1007C000A41BA4100025A54205D170BD56F8253004
:1007D00098470135EEE756F8253098470135F2E79E
:1007E00070000020700000207000002074000020C5
:1007F00002440346934200D1704703F8011BF9E716
:100800000FB40A4B13B51C6824B1A36913B9204671
:1008100000F024FA05AB049AA1680193204600F089
:10082000E1FB02B0BDE8104004B070470C000020AE
:1008300070B50E46054618B183690BB900F00EFA83
:10084000AB69AC6813B9284600F008FA234B9C4208
:1008500017D16C68A3891B071DD52369DBB1013E45
:10086000A36816F8011F013BA360E9B9002B2EDA3B
:1008700022460A21284600F03FF8013011D00A2014
:1008800070BD174B9C4201D1AC68E3E7154B9C420D
:1008900008BFEC68DEE72146284600F07FF8002814
:1008A000DDD04FF0FF3070BD002B04DAA269934217
:1008B00006DB0A2904D023685A1C22601970CFE78E
:1008C0002246284600F018F80130C9D1E9E723682C
:1008D0000A205A1C2260187070BD00BF3C1800002E
:1008E0005C1800001C180000024B01461868FFF756
:1008F0009FBF00BF0C000020F8B50E461446054609
:1009000018B183690BB900F0A9F9214B9C422AD197
:100910006C68A369A360A3891A072ED5236963B302
:1009200023692068C01A6369F6B29842374604DB2F
:100930002146284600F028F928BBA368013BA360A4
:1009400023685A1C22601E7063690130984204D0EB
:10095000A389DB0719D50A2E17D12146284600F0B6
:1009600013F990B10FE00B4B9C4201D1AC68D0E77A
:10097000094B9C4208BFEC68CBE72146284600F0B3
:100980000DF80028CCD04FF0FF373846F8BD00BF37
:100990003C1800005C1800001C180000324B70B5B9
:1009A0001D6806460C4625B1AB6913B9284600F010
:1009B00055F92E4B9C420FD16C68B4F90C309AB2A9
:1009C00015072CD4D00611D40922326043F040031D
:1009D000A3814FF0FF3070BD254B9C4201D1AC6824
:1009E000EBE7244B9C4208BFEC68E6E7510712D5C1
:1009F000616B41B104F14403994202D0304600F0EA
:100A00001BFA00236363A38923F02403A38100233B
:100A1000636023692360A38943F00803A3812369EA
:100A20004BB9A38903F42073B3F5007F03D02146AB
:100A3000304600F0C1F9A28912F001030CD0002366
:100A4000A36063695B42A361236953B9B4F90C30B5
:100A500013F08000BAD170BD920758BF6369A360DC
:100A6000F2E70020F7E700BF0C0000203C18000070
:100A70005C1800001C1800008A892DE9F041054629
:100A800010070C465AD44B68002B05DC0B6C002B6E
:100A900002DC0020BDE8F081E66A002EF9D00023D8
:100AA00012F480522F682B6033D0606DA3895A07EF
:100AB00005D56368C01A636B0BB1236CC01A0023A1
:100AC0000246E66A216A2846B047431CA38906D13C
:100AD00029681D294BD82B4ACA40D60747D5002282
:100AE0006260D9042269226004D5421C01D12B68BE
:100AF00003B96065616B2F600029CAD004F144031B
:100B0000994202D0284600F097F900206063BDE8C2
:100B1000F081216A01232846B047411CC6D12B68C9
:100B2000002BC3D01D2B01D0162B01D12F60B0E7B5
:100B3000A38943F04003A381BDE8F0810F69002F32
:100B4000A7D093070E6808BF4B690F6018BF00233A
:100B5000A6EB07088B60B8F1000F9ADD43463A46D2
:100B6000216AA66A2846B047002807DCA38943F01B
:100B70004003A3814FF0FF30BDE8F0810744A8EBAC
:100B80000008E8E70100402038B50B6905460C462F
:100B9000DBB118B183690BB900F060F80C4B9C42D3
:100BA00009D16C68B4F90C307BB121462846BDE808
:100BB0003840FFF761BF074B9C4201D1AC68F1E7B9
:100BC000054B9C4208BFEC68ECE7002038BD00BF35
:100BD0003C1800005C1800001C180000014900F0DF
:100BE000A9B800BF890B0000002310B504460360BC
:100BF0004360836081814366C28103614361836195
:100C0000194608225C30FFF7F3FD054B6362054B84
:100C1000A362054BE362054B2462236310BD00BF52
:100C20005D1500007F150000B7150000DB15000002
:100C300070B54A1E682555430E4605F1740100F053
:100C400049F9044640B1002180E842000C30A06020
:100C500005F16802FFF7CCFD204670BD836910B531
:100C6000044633BB8364C3640365124B124A1B689A
:100C70008262984204BF0123836100F01FF8606024
:100C8000204600F01BF8A060204600F017F8002274
:100C9000E06004216068FFF7A7FF01220921A06836
:100CA000FFF7A2FF02221221E068FFF79DFF012358
:100CB000A36110BD18180000DD0B0000F8B51C4B37
:100CC0001E68B369074613B93046FFF7C7FF4836B9
:100CD000B4687368013B03D5336833B13668F7E70E
:100CE000B4F90C506DB16834F4E704213846FFF7CD
:100CF0009FFF30600028F1D10C233B600446204662
:100D0000F8BD4FF6FF73E3810123A381656625607B
:100D1000A560656025616561A5610822294604F129
:100D20005C00FFF765FD6563A563A564E564E6E720
:100D3000181800002DE9F8438046894600F1480460
:100D4000002614B93046BDE8F883A5686768013FFE
:100D500001D52468F5E7AB89012B07D9B5F90E3029
:100D6000013303D029464046C84706436835EEE7BD
:100D700070B50E46B1F90E10002990B014461D460C
:100D800007DA00232B60B3891A0610D44FF480636E
:100D90000EE001AA00F048FC0028F2DB029A02F4FF
:100DA0007042A2F500535A425A412A60EEE74023AE
:100DB0000020236010B070BD8B8973B59D07064677
:100DC0000C4607D504F147032360236101236361C7
:100DD00002B070BD01AB6A46FFF7CAFF0099054635
:100DE000304600F077F848B9B4F90C309A05EFD4E2
:100DF00023F0030343F00203A381E3E70D4BB36247
:100E0000A389206043F08003A381009B6361019B61
:100E100020615BB1B4F90E10304600F017FC28B128
:100E2000A38923F0030343F00103A381A3891D4396
:100E3000A581CDE7DD0B000038B50546002945D07A
:100E400051F8043C0C1F002BB8BFE41800F070FCF4
:100E50001F4A1368104633B9636014602846BDE822
:100E6000384000F066BCA3420CD921686218934256
:100E700004BF1A685B68636004BF52182260046094
:100E8000ECE713465A680AB1A242FAD91968581811
:100E9000A0420BD120680144581882421960DDD16C
:100EA000106852685A6001441960D7E702D90C23D0
:100EB0002B60D3E7206821188A4204BF116852686A
:100EC000626004BF091821605C60C7E738BD00BFDD
:100ED000A000002070B5CD1C25F0030508350C2DB1
:100EE00038BF0C25002D064601DBA94203D90C238F
:100EF0003360002070BD00F01BFC234A14682146BB
:100F000091B9224C23681BB9304600F017FB2060D2
:100F10002946304600F012FB431C26D10C233360D7
:100F2000304600F006FCE4E70B685B1B1AD40B2B81
:100F30000FD90B60CD50CC18304600F0FAFB04F10D
:100F40000B00231D20F00700C31A1BD05A42E250A9
:100F500070BD8C420DBF63684B686360136018BF3F
:100F60000C46E9E70C464968CAE7C41C24F00304B0
:100F7000A04205D0211A304600F0E0FA0130CDD071
:100F80002560D9E770BD00BFA0000020A4000020AC
:100F90009368013B002B10B4936009DA9469A34273
:100FA00002DBCBB20A2B03D15DF8044BFFF7A4BCE4
:100FB0001368581C10601970C8B25DF8044B704774
:100FC000F8B506460F461446D518AC4201D10020AC
:100FD00007E03A4614F8011B3046FFF7D9FF431CDF
:100FE000F3D1F8BD2DE9F04F9DB00C4617460393A1
:100FF000064618B183690BB9FFF730FE7C4B9C4263
:1010000057D17468A38918075DD52369002B5AD07E
:101010000023099320238DF8293030238DF82A30BE
:101020004FF0010BB846454615F8013B002B55D152
:10103000B8EB070A0BD053463A4621463046FFF735
:10104000BFFF013000F0C480099B5344099398F816
:101050000030002B00F0BC8000234FF0FF320493DF
:101060000793059206938DF853301A930522297839
:10107000604800F00DFB05F10108049B002831D108
:10108000D90644BF20228DF853201A0744BF2B22D3
:101090008DF853202A782A2A2CD0079A00210A207A
:1010A000A846013598F80030303B092B6DD971B353
:1010B00026E0514B9C4201D1B468A3E74F4B9C42C0
:1010C00008BFF4689EE721463046FFF767FC00281A
:1010D0009ED04FF0FF301DB0BDE8F08F252BA7D07C
:1010E000A846A0E7434A801A0BFA00F01843049080
:1010F0004546BBE7039A111D12680391002A01DBE4
:10110000079204E0524243F002030792049398F8D6
:1011100000302E2B10D198F801302A2B08F1010154
:1011200037D1039B1A1D1B680392002BB8BF4FF0E9
:10113000FF3308F102080593314D98F8001003229F
:10114000284600F0A5FA40B14023401B03FA00F006
:10115000049B0343049308F1010898F80010294800
:101160008DF82810062208F1010700F091FA0028F6
:1011700034D0254B03BB039B073323F0070308330D
:101180000393099B4B4409934CE700FB0232012176
:1011900086E70023059318460A258846013198F80A
:1011A0000020303A092A03D9002BC5D00590C3E7A7
:1011B00005FB00200123F0E703AB00932246134B0D
:1011C00004A93046AFF30080B0F1FF3F8146D8D18B
:1011D000A3895B063FF57DAF09987CE703AB0093DD
:1011E00022460A4B04A9304600F088F8ECE700BF1D
:1011F0003C1800007C1800005C1800001C1800005F
:10120000821800008618000000000000C10F0000D6
:101210002DE9F04791461F468A680B69DDF820806A
:101220009342B8BF1346C9F8003091F843200646F0
:101230000C4612B10133C9F800302368990642BF49
:10124000D9F800300233C9F80030256815F00605DA
:1012500007D104F1190AE368D9F800209B1A9D42CE
:1012600029DB94F843302268003318BF012392062B
:101270002ED404F1430239463046C047013021D014
:101280002368E568D9F8002003F00603042B08BFA3
:10129000AD1AA36822690CBF25EAE57500259342C3
:1012A000C4BF9B1AED184FF000091A344D451BD1ED
:1012B0000020BDE8F0870123524639463046C0473A
:1012C000013003D14FF0FF30BDE8F0870135C2E7B0
:1012D000E1185A1C302081F84300224494F845104C
:1012E00082F843100233C4E70123224639463046D0
:1012F000C0470130E6D009F10109D7E72DE9F043F5
:1013000017460A7E85B06E2A984606460C460C9B08
:1013100001F1430E00F0BC801AD8632A2ED00AD8FF
:10132000002A00F0C880582A00F08A8004F14205A3
:1013300084F842202AE0642A01D0692AF6D1216883
:101340001A6811F0800F23D0111D1960136827E06F
:10135000732A00F0B48008D86F2A2AD0702AE5D109
:101360000A6842F020020A6003E0752A21D0782A38
:10137000DCD1782284F845206E4964E01A6801F1D6
:101380004205111D1960136884F842300123A3E05F
:1013900011F0400F02F104011960D7D0B2F900300A
:1013A000002B03DA2D225B4284F8432062490A2293
:1013B00017E02068196810F0800F03D0081D18602E
:1013C0000B6806E010F0400F01F104001860F7D040
:1013D0000B8859496F2A14BF0A220822002084F87A
:1013E00043006568A560002DC0F29C80206820F055
:1013F00004002060002B3FD1002D40F09580754601
:10140000082A0BD12368DA0708D5236962689A4253
:10141000DEBF302305F8013C05F1FF35AEEB0503D7
:101420002361CDF800803B4603AA21463046FFF7F2
:10143000EFFE013055D14FF0FF3005B0BDE8F0832D
:1014400081F845203C492268186812F0800F00F1AD
:1014500004051D6001D0036802E05506FBD5038832
:10146000D00744BF42F0200222601BB9226822F05C
:10147000200222601022B1E77546B3FBF2F002FBB6
:101480001033CB5C05F8013D03460028F5D1B7E7E2
:1014900008681A68496910F0800F04D0101D1860A0
:1014A0001368196007E010F0400F02F104001860A3
:1014B0001368F6D01980002323617546B1E71A68D6
:1014C000111D1960156862680021284600F0E0F8D7
:1014D00008B1401B606063682361002384F84330D7
:1014E0009FE723692A4639463046C0470130A2D0DB
:1014F00023689B0707D5002504F11909E368039ABF
:101500009B1A9D4205DBE068039B9842B8BF1846D2
:1015100093E701234A4639463046C04701308AD016
:101520000135EBE7002BA7D10B7884F8423004F1AA
:10153000420565E79E1800008D18000038B5064C7E
:10154000002305460846236000F006F9431C02D13B
:10155000236803B12B6038BDAC08002010B50C46E1
:10156000B1F90E1000F0E6F80028ABBF636DA38957
:101570001B1823F48053ACBF6365A38110BD2DE914
:10158000F0411F468B89DB0505460C46164605D5FE
:1015900002230022B1F90E1000F068F8A389B4F913
:1015A0000E1023F48053A38132463B462846BDE803
:1015B000F04100F017B810B50C46B1F90E1000F06C
:1015C00055F8431CA38915BF606523F4805343F489
:1015D0008053A38118BFA38110BDB1F90E1000F094
:1015E00013B8000038B5074C0546084611460022DE
:1015F00022601A46FFF702F8431C02D1236803B1A8
:101600002B6038BDAC08002038B5064C00230546D9
:1016100008462360FFF720F8431C02D1236803B17A
:101620002B6038BDAC08002038B5074C00230546B8
:10163000084611462360FFF717F8431C02D12368C0
:1016400003B12B6038BD00BFAC08002038B5064C94
:101650000023054608462360FFF70EF8431C02D11D
:10166000236803B12B6038BDAC08002038B5074CA7
:10167000054608461146002222601A46FFF703F885
:10168000431C02D1236803B12B6038BDAC08002095
:1016900001F0FF01102A2BDB10F0070F08D010F823
:1016A000013B013A8B422DD010F0070F42B3F6D127
:1016B000F0B441EA012141EA014122F007047FF040
:1016C00000070023F0E80256083C85EA010586EA97
:1016D000010685FA47F5A3FA87F586FA47F6A5FAD3
:1016E00087F68EB9EED1F0BC01F0FF0102F00702DF
:1016F00032B110F8013B013A83EA010313B1F8D18A
:101700000020704701387047002D06BF354603386A
:10171000073815F0010F07D1013015F4807F02BFA3
:10172000013015F4C03F0130F0BC0138704700BFF4
:101730007047704738B5074C0546084611460022E9
:1017400022601A46FEF77CFF431C02D1236803B1D6
:101750002B6038BDAC080020044A05491368002BF3
:1017600008BF0B461844106018467047A8000020B8
:10177000B0080020FEE700BFF8B500BFF8BC08BC09
:101780009E467047F8B500BFF8BC08BC9E4670473F
:1017900025630A004A617761646875720000000081
:1017A000496E2048617264204661756C74204861FE
:1017B0006E646C6572000000723020203D2030782D
:1017C00025780A00723120203D20307825780A00E3
:1017D000723220203D20307825780A007233202094
:1017E0003D20307825780A00723132203D20307853
:1017F00025780A006C7220203D20307825780A0078
:10180000706320203D20307825780A0070737220A4
:101810003D20307825780A001000002000000000EC
:1018200000000000000000000000000000000000B8
:1018300000000000000000000000000000000000A8
:101840000000000000000000000000000000000098
:101850000000000000000000000000000000000088
:101860000000000000000000000000000000000078
:10187000000000000000000000000000232D302BBD
:101880002000686C4C006566674546470030313281
:1018900033343536373839414243444546003031D8
:1018A0003233343536373839616263646566000037
:0418B0000000000034
:0818B400ACE9FF7F0100000018
:1018BC00FF000000FF000000FF00000010000020EF
:1018CC00000000003C1800005C1800001C18000010
:1018DC0000000000000000000000000000000000FC
:1018EC0000000000000000000000000000000000EC
:1018FC0000000000000000000000000000000000DC
:10190C0000000000000000000000000000000000CB
:10191C0000000000000000000000000000000000BB
:0C192C0019020000F5010000000000009E
:04000003000006995A
:00000001FF
